{
  "contractName": "DMED",
  "abi": [
    {
      "inputs": [],
      "stateMutability": "nonpayable",
      "type": "constructor"
    },
    {
      "inputs": [],
      "name": "_initialized",
      "outputs": [
        {
          "internalType": "bool",
          "name": "",
          "type": "bool"
        }
      ],
      "stateMutability": "view",
      "type": "function"
    },
    {
      "inputs": [],
      "name": "owner",
      "outputs": [
        {
          "internalType": "address",
          "name": "",
          "type": "address"
        }
      ],
      "stateMutability": "view",
      "type": "function"
    },
    {
      "inputs": [],
      "name": "getNumberOfPlants",
      "outputs": [
        {
          "internalType": "uint256",
          "name": "",
          "type": "uint256"
        }
      ],
      "stateMutability": "view",
      "type": "function"
    },
    {
      "inputs": [
        {
          "internalType": "uint256",
          "name": "toSet",
          "type": "uint256"
        }
      ],
      "name": "setNumberOfPlants",
      "outputs": [],
      "stateMutability": "nonpayable",
      "type": "function"
    },
    {
      "inputs": [
        {
          "internalType": "string",
          "name": "",
          "type": "string"
        }
      ],
      "name": "getAlternativeMedicineTypes",
      "outputs": [
        {
          "internalType": "string",
          "name": "",
          "type": "string"
        }
      ],
      "stateMutability": "view",
      "type": "function"
    },
    {
      "inputs": [],
      "name": "getTotalProviders",
      "outputs": [
        {
          "internalType": "uint256",
          "name": "",
          "type": "uint256"
        }
      ],
      "stateMutability": "view",
      "type": "function"
    },
    {
      "inputs": [
        {
          "internalType": "uint256",
          "name": "_toSet",
          "type": "uint256"
        }
      ],
      "name": "setTotalProviders",
      "outputs": [],
      "stateMutability": "nonpayable",
      "type": "function"
    },
    {
      "inputs": [
        {
          "internalType": "uint256",
          "name": "",
          "type": "uint256"
        }
      ],
      "name": "getBalance",
      "outputs": [
        {
          "internalType": "uint256",
          "name": "",
          "type": "uint256"
        }
      ],
      "stateMutability": "view",
      "type": "function"
    }
  ],
  "bytecode": "0x608060405234801561001057600080fd5b5033600560006101000a81548173ffffffffffffffffffffffffffffffffffffffff021916908373ffffffffffffffffffffffffffffffffffffffff160217905550610918806100616000396000f3fe608060405234801561001057600080fd5b50600436106100885760003560e01c806359755c281161005b57806359755c28146101275780638da5cb5b14610145578063a9361f1014610163578063f20c180c1461017f57610088565b80631e0104391461008d578063276b8b02146100bd5780633072cf60146100d957806330961296146100f7575b600080fd5b6100a760048036038101906100a291906104cd565b61019d565b6040516100b4919061065c565b60405180910390f35b6100d760048036038101906100d291906104cd565b6101e6565b005b6100e1610264565b6040516100ee919061061f565b60405180910390f35b610111600480360381019061010c919061048c565b610277565b60405161011e919061063a565b60405180910390f35b61012f610325565b60405161013c919061065c565b60405180910390f35b61014d610348565b60405161015a9190610604565b60405180910390f35b61017d600480360381019061017891906104cd565b61036e565b005b6101876103ec565b604051610194919061065c565b60405180910390f35b6000600360003373ffffffffffffffffffffffffffffffffffffffff1673ffffffffffffffffffffffffffffffffffffffff168152602001908152602001600020549050919050565b600560009054906101000a900473ffffffffffffffffffffffffffffffffffffffff1673ffffffffffffffffffffffffffffffffffffffff163373ffffffffffffffffffffffffffffffffffffffff161461024057600080fd5b80600060405161024f906105da565b90815260200160405180910390208190555050565b600560149054906101000a900460ff1681565b60606002604051610287906105ef565b908152602001604051809103902080546102a09061077e565b80601f01602080910402602001604051908101604052809291908181526020018280546102cc9061077e565b80156103195780601f106102ee57610100808354040283529160200191610319565b820191906000526020600020905b8154815290600101906020018083116102fc57829003601f168201915b50505050509050919050565b600080604051610334906105c5565b908152602001604051809103902054905090565b600560009054906101000a900473ffffffffffffffffffffffffffffffffffffffff1681565b600560009054906101000a900473ffffffffffffffffffffffffffffffffffffffff1673ffffffffffffffffffffffffffffffffffffffff163373ffffffffffffffffffffffffffffffffffffffff16146103c857600080fd5b8060006040516103d7906105c5565b90815260200160405180910390208190555050565b6000806040516103fb906105da565b908152602001604051809103902054905090565b600061042261041d8461069c565b610677565b90508281526020810184848401111561043a57600080fd5b61044584828561073c565b509392505050565b600082601f83011261045e57600080fd5b813561046e84826020860161040f565b91505092915050565b600081359050610486816108cb565b92915050565b60006020828403121561049e57600080fd5b600082013567ffffffffffffffff8111156104b857600080fd5b6104c48482850161044d565b91505092915050565b6000602082840312156104df57600080fd5b60006104ed84828501610477565b91505092915050565b6104ff816106f4565b82525050565b61050e81610706565b82525050565b600061051f826106cd565b61052981856106d8565b935061053981856020860161074b565b6105428161083f565b840191505092915050565b600061055a6006836106e9565b915061056582610850565b600682019050919050565b600061057d6009836106e9565b915061058882610879565b600982019050919050565b60006105a0601a836106e9565b91506105ab826108a2565b601a82019050919050565b6105bf81610732565b82525050565b60006105d08261054d565b9150819050919050565b60006105e582610570565b9150819050919050565b60006105fa82610593565b9150819050919050565b600060208201905061061960008301846104f6565b92915050565b60006020820190506106346000830184610505565b92915050565b600060208201905081810360008301526106548184610514565b905092915050565b600060208201905061067160008301846105b6565b92915050565b6000610681610692565b905061068d82826107b0565b919050565b6000604051905090565b600067ffffffffffffffff8211156106b7576106b6610810565b5b6106c08261083f565b9050602081019050919050565b600081519050919050565b600082825260208201905092915050565b600081905092915050565b60006106ff82610712565b9050919050565b60008115159050919050565b600073ffffffffffffffffffffffffffffffffffffffff82169050919050565b6000819050919050565b82818337600083830152505050565b60005b8381101561076957808201518184015260208101905061074e565b83811115610778576000848401525b50505050565b6000600282049050600182168061079657607f821691505b602082108114156107aa576107a96107e1565b5b50919050565b6107b98261083f565b810181811067ffffffffffffffff821117156107d8576107d7610810565b5b80604052505050565b7f4e487b7100000000000000000000000000000000000000000000000000000000600052602260045260246000fd5b7f4e487b7100000000000000000000000000000000000000000000000000000000600052604160045260246000fd5b6000601f19601f8301169050919050565b7f506c616e74730000000000000000000000000000000000000000000000000000600082015250565b7f50726f7669646572730000000000000000000000000000000000000000000000600082015250565b7f416c7465726e6174697665204d65646963696e65205479706573000000000000600082015250565b6108d481610732565b81146108df57600080fd5b5056fea26469706673582212208ef470426da07965e9f5eb7d2ac6ee0521ccf1b8a79e168f778e77f6d8799ea064736f6c63430008040033",
  "immutableReferences": {},
  "source": "// SPDX-License-Identifier: MIT\r\npragma solidity ^0.8.4;\r\nimport \"./Storage.sol\";\r\n contract DMED is Storage {\r\n    modifier onlyOwner {\r\n        require(msg.sender == owner);\r\n        _;\r\n    }\r\n    constructor() {\r\n        owner = msg.sender;\r\n    }\r\n    function getNumberOfPlants() public view returns(uint256) {\r\n        return _uintStorage[\"Plants\"];\r\n    }\r\n    function setNumberOfPlants(uint256 toSet) public onlyOwner {\r\n        _uintStorage[\"Plants\"] = toSet;\r\n    }\r\n    function getAlternativeMedicineTypes(string memory) public view returns(string memory) {\r\n        return _stringStorage[\"Alternative Medicine Types\"];\r\n    }\r\n     function getTotalProviders() public view returns(uint256) {\r\n        return _uintStorage[\"Providers\"];\r\n    }\r\n    function setTotalProviders(uint256 _toSet) onlyOwner public {\r\n        _uintStorage[\"Providers\"] = _toSet;\r\n    }\r\n    function getBalance (uint) view public returns(uint) {\r\n        return balances[msg.sender];\r\n    }\r\n        \r\n\r\n}",
  "sourcePath": "C:/Users/samue/contractUpgrade/proxyContract/contracts/UpdatedDMED.sol",
  "compiler": {
    "name": "solc",
    "version": "0.8.4+commit.c7e474f2.Emscripten.clang"
  },
  "schemaVersion": "3.3.4",
  "updatedAt": "2021-05-14T00:38:48.907Z",
  "devdoc": {
    "kind": "dev",
    "methods": {},
    "version": 1
  },
  "userdoc": {
    "kind": "user",
    "methods": {},
    "version": 1
  }
}