{
  "contractName": "Proxy",
  "abi": [
    {
      "inputs": [
        {
          "internalType": "address",
          "name": "_currentAddress",
          "type": "address"
        }
      ],
      "stateMutability": "nonpayable",
      "type": "constructor"
    },
    {
      "stateMutability": "payable",
      "type": "fallback"
    },
    {
      "inputs": [],
      "name": "_initialized",
      "outputs": [
        {
          "internalType": "bool",
          "name": "",
          "type": "bool"
        }
      ],
      "stateMutability": "view",
      "type": "function"
    },
    {
      "inputs": [],
      "name": "owner",
      "outputs": [
        {
          "internalType": "address",
          "name": "",
          "type": "address"
        }
      ],
      "stateMutability": "view",
      "type": "function"
    },
    {
      "stateMutability": "payable",
      "type": "receive"
    },
    {
      "inputs": [
        {
          "internalType": "address",
          "name": "_newAddress",
          "type": "address"
        }
      ],
      "name": "upgrade",
      "outputs": [],
      "stateMutability": "nonpayable",
      "type": "function"
    }
  ],
  "bytecode": "0x608060405234801561001057600080fd5b506040516104f83803806104f8833981810160405281019061003291906100cf565b33600560006101000a81548173ffffffffffffffffffffffffffffffffffffffff021916908373ffffffffffffffffffffffffffffffffffffffff16021790555080600660006101000a81548173ffffffffffffffffffffffffffffffffffffffff021916908373ffffffffffffffffffffffffffffffffffffffff16021790555050610141565b6000815190506100c98161012a565b92915050565b6000602082840312156100e157600080fd5b60006100ef848285016100ba565b91505092915050565b60006101038261010a565b9050919050565b600073ffffffffffffffffffffffffffffffffffffffff82169050919050565b610133816100f8565b811461013e57600080fd5b50565b6103a8806101506000396000f3fe6080604052600436106100385760003560e01c80630900f010146101355780633072cf601461015e5780638da5cb5b146101895761003f565b3661003f57005b6000600660009054906101000a900473ffffffffffffffffffffffffffffffffffffffff169050600073ffffffffffffffffffffffffffffffffffffffff16600660009054906101000a900473ffffffffffffffffffffffffffffffffffffffff1673ffffffffffffffffffffffffffffffffffffffff1614156100c257600080fd5b600080368080601f016020809104026020016040519081016040528093929190818152602001838380828437600081840152601f19601f820116905080830192505050505050509050600080825160208401856108fcf460063b604051816000823e8260008114610131578282f35b8282fd5b34801561014157600080fd5b5061015c600480360381019061015791906102a0565b6101b4565b005b34801561016a57600080fd5b50610173610252565b6040516101809190610302565b60405180910390f35b34801561019557600080fd5b5061019e610265565b6040516101ab91906102e7565b60405180910390f35b600560009054906101000a900473ffffffffffffffffffffffffffffffffffffffff1673ffffffffffffffffffffffffffffffffffffffff163373ffffffffffffffffffffffffffffffffffffffff161461020e57600080fd5b80600660006101000a81548173ffffffffffffffffffffffffffffffffffffffff021916908373ffffffffffffffffffffffffffffffffffffffff16021790555050565b600560149054906101000a900460ff1681565b600560009054906101000a900473ffffffffffffffffffffffffffffffffffffffff1681565b60008135905061029a8161035b565b92915050565b6000602082840312156102b257600080fd5b60006102c08482850161028b565b91505092915050565b6102d28161031d565b82525050565b6102e18161032f565b82525050565b60006020820190506102fc60008301846102c9565b92915050565b600060208201905061031760008301846102d8565b92915050565b60006103288261033b565b9050919050565b60008115159050919050565b600073ffffffffffffffffffffffffffffffffffffffff82169050919050565b6103648161031d565b811461036f57600080fd5b5056fea264697066735822122057639ac23ed529525e34f0950a2270b82ac7d32cd33719f575d71ea7782e35d864736f6c63430008040033",
  "immutableReferences": {},
  "source": "//SPDX-License-Identifier: MIT\r\npragma solidity ^0.8.4;\r\nimport \"./Storage.sol\";\r\ncontract Proxy is Storage {\r\n    address currentAddress;\r\n    constructor(address _currentAddress) {\r\n        owner = msg.sender;\r\n        currentAddress = _currentAddress;\r\n    } \r\n    function upgrade(address _newAddress) public {\r\n        require(msg.sender == owner);\r\n        currentAddress = _newAddress;\r\n\r\n    }\r\n    receive() payable external {}\r\n    \r\n   \r\n    // FALLBACK Function\r\n     fallback () payable external  {\r\n         address implementation = currentAddress;\r\n         require(currentAddress != address(0));\r\n         bytes memory data = msg.data;\r\n\r\n\r\n     assembly {\r\n      let result := delegatecall(2300,implementation, add(data, 0x20), mload(data), 0, 0)\r\n      let size := extcodesize(currentAddress.slot)\r\n      let ptr := mload(0x40)\r\n      returndatacopy(ptr, 0, size)\r\n      switch result\r\n      case 0 {revert(ptr, size)}\r\n      default {return(ptr, size)}\r\n    }\r\n}\r\n}\r\n\r\n",
  "sourcePath": "C:/Users/samue/contractUpgrade/proxyContract/contracts/proxy.sol",
  "compiler": {
    "name": "solc",
    "version": "0.8.4+commit.c7e474f2.Emscripten.clang"
  },
  "schemaVersion": "3.3.4",
  "updatedAt": "2021-05-14T00:11:28.170Z",
  "devdoc": {
    "kind": "dev",
    "methods": {},
    "version": 1
  },
  "userdoc": {
    "kind": "user",
    "methods": {},
    "version": 1
  }
}